{
  "address": "0x251487c4aDB8b3295751e70Fcd1F55DF9E8ce651",
  "abi": [
    {
      "inputs": [
        {
          "internalType": "uint256",
          "name": "_redeemFee",
          "type": "uint256"
        },
        {
          "internalType": "address",
          "name": "_feeReceiver",
          "type": "address"
        }
      ],
      "stateMutability": "nonpayable",
      "type": "constructor"
    },
    {
      "inputs": [],
      "name": "FeeTooBig",
      "type": "error"
    },
    {
      "inputs": [],
      "name": "FeeTransferFailed",
      "type": "error"
    },
    {
      "inputs": [],
      "name": "ZeroAddress",
      "type": "error"
    },
    {
      "anonymous": false,
      "inputs": [
        {
          "indexed": false,
          "internalType": "address",
          "name": "_contract",
          "type": "address"
        },
        {
          "indexed": false,
          "internalType": "address",
          "name": "_creator",
          "type": "address"
        },
        {
          "indexed": false,
          "internalType": "string",
          "name": "_uri",
          "type": "string"
        },
        {
          "indexed": false,
          "internalType": "bool",
          "name": "_ownerSignatureMintAllowed",
          "type": "bool"
        }
      ],
      "name": "ERC1155Deployed",
      "type": "event"
    },
    {
      "anonymous": false,
      "inputs": [
        {
          "indexed": false,
          "internalType": "address",
          "name": "_sender",
          "type": "address"
        },
        {
          "indexed": false,
          "internalType": "uint256",
          "name": "_amount",
          "type": "uint256"
        }
      ],
      "name": "FeeReceived",
      "type": "event"
    },
    {
      "anonymous": false,
      "inputs": [
        {
          "indexed": false,
          "internalType": "address",
          "name": "_previous",
          "type": "address"
        },
        {
          "indexed": false,
          "internalType": "address",
          "name": "_new",
          "type": "address"
        }
      ],
      "name": "FeeReceiverSet",
      "type": "event"
    },
    {
      "anonymous": false,
      "inputs": [
        {
          "indexed": true,
          "internalType": "address",
          "name": "previousOwner",
          "type": "address"
        },
        {
          "indexed": true,
          "internalType": "address",
          "name": "newOwner",
          "type": "address"
        }
      ],
      "name": "OwnershipTransferred",
      "type": "event"
    },
    {
      "anonymous": false,
      "inputs": [
        {
          "indexed": false,
          "internalType": "address",
          "name": "account",
          "type": "address"
        }
      ],
      "name": "Paused",
      "type": "event"
    },
    {
      "anonymous": false,
      "inputs": [
        {
          "indexed": false,
          "internalType": "uint256",
          "name": "_previous",
          "type": "uint256"
        },
        {
          "indexed": false,
          "internalType": "uint256",
          "name": "_new",
          "type": "uint256"
        }
      ],
      "name": "RedeemFeeSet",
      "type": "event"
    },
    {
      "anonymous": false,
      "inputs": [
        {
          "indexed": false,
          "internalType": "address",
          "name": "account",
          "type": "address"
        }
      ],
      "name": "Unpaused",
      "type": "event"
    },
    {
      "inputs": [
        {
          "internalType": "string",
          "name": "_uri",
          "type": "string"
        },
        {
          "internalType": "bool",
          "name": "_ownerSignatureMintAllowed",
          "type": "bool"
        }
      ],
      "name": "deployERC1155",
      "outputs": [
        {
          "internalType": "address",
          "name": "newERC1155",
          "type": "address"
        }
      ],
      "stateMutability": "nonpayable",
      "type": "function"
    },
    {
      "inputs": [],
      "name": "feeReceiver",
      "outputs": [
        {
          "internalType": "address",
          "name": "",
          "type": "address"
        }
      ],
      "stateMutability": "view",
      "type": "function"
    },
    {
      "inputs": [],
      "name": "logic",
      "outputs": [
        {
          "internalType": "address",
          "name": "",
          "type": "address"
        }
      ],
      "stateMutability": "view",
      "type": "function"
    },
    {
      "inputs": [],
      "name": "owner",
      "outputs": [
        {
          "internalType": "address",
          "name": "",
          "type": "address"
        }
      ],
      "stateMutability": "view",
      "type": "function"
    },
    {
      "inputs": [],
      "name": "paused",
      "outputs": [
        {
          "internalType": "bool",
          "name": "",
          "type": "bool"
        }
      ],
      "stateMutability": "view",
      "type": "function"
    },
    {
      "inputs": [],
      "name": "receiveFee",
      "outputs": [],
      "stateMutability": "payable",
      "type": "function"
    },
    {
      "inputs": [],
      "name": "redeemFee",
      "outputs": [
        {
          "internalType": "uint256",
          "name": "",
          "type": "uint256"
        }
      ],
      "stateMutability": "view",
      "type": "function"
    },
    {
      "inputs": [],
      "name": "renounceOwnership",
      "outputs": [],
      "stateMutability": "nonpayable",
      "type": "function"
    },
    {
      "inputs": [
        {
          "internalType": "address",
          "name": "_feeReceiver",
          "type": "address"
        }
      ],
      "name": "setFeeReceiver",
      "outputs": [],
      "stateMutability": "nonpayable",
      "type": "function"
    },
    {
      "inputs": [
        {
          "internalType": "uint256",
          "name": "_redeemFee",
          "type": "uint256"
        }
      ],
      "name": "setRedeemFee",
      "outputs": [],
      "stateMutability": "nonpayable",
      "type": "function"
    },
    {
      "inputs": [
        {
          "internalType": "address",
          "name": "newOwner",
          "type": "address"
        }
      ],
      "name": "transferOwnership",
      "outputs": [],
      "stateMutability": "nonpayable",
      "type": "function"
    }
  ],
  "transactionHash": "0x65e0cf9a8c3139db403011cf8985ff46136ac087c93cad79db72c02732fd6b46",
  "args": [
    100,
    "0xa8f24a55dcE2826ced9851C02011256614d233c6"
  ],
  "numDeployments": 1,
  "solcInputHash": "a321faa2d5bb5b4bd23fd2b67310a46a",
  "bytecode": "0x608060405234801561001057600080fd5b50604051613a2f380380613a2f83398101604081905261002f91610113565b610038336100b6565b6000805460ff60a01b191690556001829055600280546001600160a01b0319166001600160a01b03831617905560405161007190610106565b604051809103906000f08015801561008d573d6000803e3d6000fd5b50600380546001600160a01b0319166001600160a01b0392909216919091179055506101509050565b600080546001600160a01b038381166001600160a01b0319831681178455604051919092169283917f8be0079c531659141344cd1fd0a4f28419497f9722a3daafe3b4186f6b6457e09190a35050565b612ce380610d4c83390190565b6000806040838503121561012657600080fd5b825160208401519092506001600160a01b038116811461014557600080fd5b809150509250929050565b610bed8061015f6000396000f3fe60806040526004361061009c5760003560e01c8063b3f0067411610064578063b3f006741461015d578063d7dfa0dd1461017d578063dea909cf1461019d578063e18b7fcf146101bd578063efdcd974146101c5578063f2fde38b146101e557600080fd5b80635c975abb146100a15780635d841af5146100d0578063715018a6146100f25780638da5cb5b14610107578063965fa21e14610139575b600080fd5b3480156100ad57600080fd5b50600054600160a01b900460ff1660405190151581526020015b60405180910390f35b3480156100dc57600080fd5b506100f06100eb36600461065d565b610205565b005b3480156100fe57600080fd5b506100f0610271565b34801561011357600080fd5b506000546001600160a01b03165b6040516001600160a01b0390911681526020016100c7565b34801561014557600080fd5b5061014f60015481565b6040519081526020016100c7565b34801561016957600080fd5b50600254610121906001600160a01b031681565b34801561018957600080fd5b50600354610121906001600160a01b031681565b3480156101a957600080fd5b506101216101b83660046106a1565b610285565b6100f06103b5565b3480156101d157600080fd5b506100f06101e0366004610763565b61046a565b3480156101f157600080fd5b506100f0610200366004610763565b6104db565b61020d610559565b6103e88111156102305760405163f6f3292b60e01b815260040160405180910390fd5b60015460408051918252602082018390527fffec246ec3cd6013aa24cef90073be16c9fdfd36228cd46e72c9eea216a836ad910160405180910390a1600155565b610279610559565b61028360006105b3565b565b600061028f610603565b60008383306040516024016102a6939291906107e0565b60408051601f198184030181529181526020820180516001600160e01b0316637d138e0b60e01b17905260035490519192506001600160a01b03169082906102ed90610650565b6102f8929190610813565b604051809103906000f080158015610314573d6000803e3d6000fd5b5060405163f2fde38b60e01b81523360048201529092506001600160a01b0383169063f2fde38b90602401600060405180830381600087803b15801561035957600080fd5b505af115801561036d573d6000803e3d6000fd5b505050507f5a32928ff1d139c36048a90ae64f9daeda8c7f98f783663252aedab8e64e6ab0823386866040516103a6949392919061083f565b60405180910390a15092915050565b3415610283576002546040516000916001600160a01b03169034908381818185875af1925050503d8060008114610408576040519150601f19603f3d011682016040523d82523d6000602084013e61040d565b606091505b505090508061042f57604051634033e4e360e01b815260040160405180910390fd5b604080513381523460208201527fbb527541f6cc244ae00ab689f8c23d072a30a3b4176021df62ea1c2bac8aa226910160405180910390a150565b610472610559565b600254604080516001600160a01b03928316815291831660208301527f49bc8f1c292131e71bfca22660d0716072ff2442b58d72840474dd83a390411c910160405180910390a1600280546001600160a01b0319166001600160a01b0392909216919091179055565b6104e3610559565b6001600160a01b03811661054d5760405162461bcd60e51b815260206004820152602660248201527f4f776e61626c653a206e6577206f776e657220697320746865207a65726f206160448201526564647265737360d01b60648201526084015b60405180910390fd5b610556816105b3565b50565b6000546001600160a01b031633146102835760405162461bcd60e51b815260206004820181905260248201527f4f776e61626c653a2063616c6c6572206973206e6f7420746865206f776e65726044820152606401610544565b600080546001600160a01b038381166001600160a01b0319831681178455604051919092169283917f8be0079c531659141344cd1fd0a4f28419497f9722a3daafe3b4186f6b6457e09190a35050565b600054600160a01b900460ff16156102835760405162461bcd60e51b815260206004820152601060248201526f14185d5cd8589b194e881c185d5cd95960821b6044820152606401610544565b6103398061087f83390190565b60006020828403121561066f57600080fd5b5035919050565b634e487b7160e01b600052604160045260246000fd5b8035801515811461069c57600080fd5b919050565b600080604083850312156106b457600080fd5b823567ffffffffffffffff808211156106cc57600080fd5b818501915085601f8301126106e057600080fd5b8135818111156106f2576106f2610676565b604051601f8201601f19908116603f0116810190838211818310171561071a5761071a610676565b8160405282815288602084870101111561073357600080fd5b82602086016020830137600060208483010152809650505050505061075a6020840161068c565b90509250929050565b60006020828403121561077557600080fd5b81356001600160a01b038116811461078c57600080fd5b9392505050565b6000815180845260005b818110156107b95760208185018101518683018201520161079d565b818111156107cb576000602083870101525b50601f01601f19169290920160200192915050565b6060815260006107f36060830186610793565b9315156020830152506001600160a01b0391909116604090910152919050565b6001600160a01b038316815260406020820181905260009061083790830184610793565b949350505050565b6001600160a01b0385811682528416602082015260806040820181905260009061086b90830185610793565b905082151560608301529594505050505056fe60a060405234801561001057600080fd5b5060405161033938038061033983398101604081905261002f9161010f565b6001600160a01b038216608081905260405160009182916100519085906101dd565b600060405180830381855af49150503d806000811461008c576040519150601f19603f3d011682016040523d82523d6000602084013e610091565b606091505b50915091508181906100bf5760405162461bcd60e51b81526004016100b691906101f9565b60405180910390fd5b505050505061022c565b634e487b7160e01b600052604160045260246000fd5b60005b838110156100fa5781810151838201526020016100e2565b83811115610109576000848401525b50505050565b6000806040838503121561012257600080fd5b82516001600160a01b038116811461013957600080fd5b60208401519092506001600160401b038082111561015657600080fd5b818501915085601f83011261016a57600080fd5b81518181111561017c5761017c6100c9565b604051601f8201601f19908116603f011681019083821181831017156101a4576101a46100c9565b816040528281528860208487010111156101bd57600080fd5b6101ce8360208301602088016100df565b80955050505050509250929050565b600082516101ef8184602087016100df565b9190910192915050565b60208152600082518060208401526102188160408501602087016100df565b601f01601f19169190910160400192915050565b60805160ef61024a60003960008181602a0152607b015260ef6000f3fe608060405260043610601f5760003560e01c8063d7dfa0dd14606b576025565b36602557005b6040517f00000000000000000000000000000000000000000000000000000000000000009036600082376000803683855af43d806000843e8180156067578184f35b8184fd5b348015607657600080fd5b50609d7f000000000000000000000000000000000000000000000000000000000000000081565b6040516001600160a01b03909116815260200160405180910390f3fea2646970667358221220c1e2230fe430aa7cb15a0ae43d1e3a7a344a0b0c6dabe6de3e004df3b81388d464736f6c634300080d0033a264697066735822122095d5c71a04495ff45b7659734bb2425578cbb66574404eb1ccbf528c3c56b16364736f6c634300080d0033608060405234801561001057600080fd5b50612cc3806100206000396000f3fe6080604052600436106101295760003560e01c8063715018a6116100ab578063bd85b0391161006f578063bd85b03914610344578063d81d0a1514610371578063e985e9c514610384578063f242432a146103cd578063f2fde38b146103ed578063f5298aca1461040d57600080fd5b8063715018a6146102bb5780637d138e0b146102d05780638d6e2c1f146102f05780638da5cb5b14610306578063a22cb4651461032457600080fd5b80632eb2c2d6116100f25780632eb2c2d6146101e657806331c1371314610206578063481c6a75146102215780634e1273f41461025f5780634f558e791461028c57600080fd5b8062fdd58e1461012e57806301ffc9a7146101615780630e89341c14610191578063156e29f6146101be5780632e39d7c8146101d3575b600080fd5b34801561013a57600080fd5b5061014e610149366004612102565b61042d565b6040519081526020015b60405180910390f35b34801561016d57600080fd5b5061018161017c366004612142565b6104c5565b6040519015158152602001610158565b34801561019d57600080fd5b506101b16101ac36600461215f565b6104f0565b60405161015891906121c5565b6101d16101cc3660046121d8565b610584565b005b61014e6101e136600461220b565b61061d565b3480156101f257600080fd5b506101d16102013660046123bb565b6108b4565b34801561021257600080fd5b5061012f546101819060ff1681565b34801561022d57600080fd5b5061012f546102479061010090046001600160a01b031681565b6040516001600160a01b039091168152602001610158565b34801561026b57600080fd5b5061027f61027a366004612464565b610900565b6040516101589190612569565b34801561029857600080fd5b506101816102a736600461215f565b600090815260976020526040902054151590565b3480156102c757600080fd5b506101d1610a29565b3480156102dc57600080fd5b506101d16102eb36600461258c565b610a3d565b3480156102fc57600080fd5b5061014e61271081565b34801561031257600080fd5b5060fd546001600160a01b0316610247565b34801561033057600080fd5b506101d161033f3660046125fd565b610bda565b34801561035057600080fd5b5061014e61035f36600461215f565b60009081526097602052604090205490565b6101d161037f366004612674565b610be9565b34801561039057600080fd5b5061018161039f3660046126f4565b6001600160a01b03918216600090815260666020908152604080832093909416825291909152205460ff1690565b3480156103d957600080fd5b506101d16103e836600461271e565b610ce4565b3480156103f957600080fd5b506101d1610408366004612782565b610d29565b34801561041957600080fd5b506101d16104283660046121d8565b610da2565b60006001600160a01b03831661049d5760405162461bcd60e51b815260206004820152602a60248201527f455243313135353a2061646472657373207a65726f206973206e6f742061207660448201526930b634b21037bbb732b960b11b60648201526084015b60405180910390fd5b5060009081526065602090815260408083206001600160a01b03949094168352929052205490565b60006001600160e01b031982166335b8787560e11b14806104ea57506104ea82610dde565b92915050565b6060606780546104ff9061279d565b80601f016020809104026020016040519081016040528092919081815260200182805461052b9061279d565b80156105785780601f1061054d57610100808354040283529160200191610578565b820191906000526020600020905b81548152906001019060200180831161055b57829003601f168201915b50505050509050919050565b61058c610e2e565b6105a783838360405180602001604052806000815250610e88565b34156106185761012f60019054906101000a90046001600160a01b03166001600160a01b031663e18b7fcf346040518263ffffffff1660e01b81526004016000604051808303818588803b1580156105fe57600080fd5b505af1158015610612573d6000803e3d6000fd5b50505050505b505050565b600081602001353410156106445760405163356680b760e01b815260040160405180910390fd5b813583111561066657604051633740d80b60e21b815260040160405180910390fd5b600083815260976020526040902054826040013511610698576040516376ca271560e11b815260040160405180910390fd5b60006106a383610f73565b9050806001600160a01b03166106c160fd546001600160a01b031690565b6001600160a01b0316146106e857604051638baa579f60e01b815260040160405180910390fd5b6107048585600160405180602001604052806000815250610e88565b600061012f60019054906101000a90046001600160a01b031690506000816001600160a01b031663965fa21e6040518163ffffffff1660e01b8152600401602060405180830381865afa15801561075f573d6000803e3d6000fd5b505050506040513d601f19601f8201168201806040525081019061078391906127d7565b90506000610795602087013534612806565b905081156107c5576127106107ae83602089013561281d565b6107b8919061283c565b6107c2908261285e565b90505b801561083957826001600160a01b031663e18b7fcf826040518263ffffffff1660e01b81526004016000604051808303818588803b15801561080657600080fd5b505af115801561081a573d6000803e3d6000fd5b505050505061083484823461082f9190612806565b610fd3565b610843565b6108438434610fd3565b604080516001600160a01b0386811682528a166020808301919091528183018a905288013560608201526080810184905260a0810183905290517f9098b5d2df18e362430218b79a4098cb0081120ca9fa44e94891dcbefe5204de9181900360c00190a15050923595945050505050565b6001600160a01b0385163314806108d057506108d0853361039f565b6108ec5760405162461bcd60e51b815260040161049490612876565b6108f98585858585611047565b5050505050565b606081518351146109655760405162461bcd60e51b815260206004820152602960248201527f455243313135353a206163636f756e747320616e6420696473206c656e677468604482015268040dad2e6dac2e8c6d60bb1b6064820152608401610494565b600083516001600160401b0381111561098057610980612268565b6040519080825280602002602001820160405280156109a9578160200160208202803683370190505b50905060005b8451811015610a21576109f48582815181106109cd576109cd6128c4565b60200260200101518583815181106109e7576109e76128c4565b602002602001015161042d565b828281518110610a0657610a066128c4565b6020908102919091010152610a1a816128da565b90506109af565b509392505050565b610a31610e2e565b610a3b60006111f4565b565b600054610100900460ff1615808015610a5d5750600054600160ff909116105b80610a775750303b158015610a77575060005460ff166001145b610ada5760405162461bcd60e51b815260206004820152602e60248201527f496e697469616c697a61626c653a20636f6e747261637420697320616c72656160448201526d191e481a5b9a5d1a585b1a5e995960921b6064820152608401610494565b6000805460ff191660011790558015610afd576000805461ff0019166101001790555b610b0684611246565b610b0e611276565b610b576040518060400160405280600e81526020016d27232a3ab13296ab37bab1b432b960911b815250604051806040016040528060018152602001603160f81b81525061129d565b610b5f6112ce565b61012f80546001600160a81b031916841515610100600160a81b031916176101006001600160a01b038516021790558015610bd4576000805461ff0019169055604051600181527f7f26b83ff96e1f2b6a682f133852f6798a09c465da95921460cefb38474024989060200160405180910390a15b50505050565b610be53383836112fd565b5050565b610bf1610e2e565b610c6d85858580806020026020016040519081016040528093929190818152602001838360200280828437600092019190915250506040805160208089028281018201909352888252909350889250879182918501908490808284376000920182905250604080516020810190915290815292506113dd915050565b34156108f95761012f60019054906101000a90046001600160a01b03166001600160a01b031663e18b7fcf346040518263ffffffff1660e01b81526004016000604051808303818588803b158015610cc457600080fd5b505af1158015610cd8573d6000803e3d6000fd5b50505050505050505050565b6001600160a01b038516331480610d005750610d00853361039f565b610d1c5760405162461bcd60e51b815260040161049490612876565b6108f98585858585611538565b610d31610e2e565b6001600160a01b038116610d965760405162461bcd60e51b815260206004820152602660248201527f4f776e61626c653a206e6577206f776e657220697320746865207a65726f206160448201526564647265737360d01b6064820152608401610494565b610d9f816111f4565b50565b610daa610e2e565b336001600160a01b03841614610dd3576040516330cd747160e01b815260040160405180910390fd5b610618838383611674565b60006001600160e01b03198216636cdb3d1360e11b1480610e0f57506001600160e01b031982166303a24d0760e21b145b806104ea57506301ffc9a760e01b6001600160e01b03198316146104ea565b60fd546001600160a01b03163314610a3b5760405162461bcd60e51b815260206004820181905260248201527f4f776e61626c653a2063616c6c6572206973206e6f7420746865206f776e65726044820152606401610494565b6001600160a01b038416610eae5760405162461bcd60e51b8152600401610494906128f3565b336000610eba85611808565b90506000610ec785611808565b9050610ed883600089858589611853565b60008681526065602090815260408083206001600160a01b038b16845290915281208054879290610f0a90849061285e565b909155505060408051878152602081018790526001600160a01b03808a1692600092918716917fc3d58168c5ae7397731d063d5bbf3d657854427343f4c083240f7aacaa2d0f62910160405180910390a4610f6a83600089898989611861565b50505050505050565b600080610f7f836119bc565b9050610fcc81610f926060860186612934565b8080601f016020809104026020016040519081016040528093929190818152602001838380828437600092019190915250611a2892505050565b9392505050565b6000826001600160a01b03168260405160006040518083038185875af1925050503d8060008114611020576040519150601f19603f3d011682016040523d82523d6000602084013e611025565b606091505b505090508061061857604051634033e4e360e01b815260040160405180910390fd5b81518351146110685760405162461bcd60e51b81526004016104949061297a565b6001600160a01b03841661108e5760405162461bcd60e51b8152600401610494906129c2565b3361109d818787878787611853565b60005b84518110156111865760008582815181106110bd576110bd6128c4565b6020026020010151905060008583815181106110db576110db6128c4565b60209081029190910181015160008481526065835260408082206001600160a01b038e16835290935291909120549091508181101561112c5760405162461bcd60e51b815260040161049490612a07565b60008381526065602090815260408083206001600160a01b038e8116855292528083208585039055908b1682528120805484929061116b90849061285e565b925050819055505050508061117f906128da565b90506110a0565b50846001600160a01b0316866001600160a01b0316826001600160a01b03167f4a39dc06d4c0dbc64b70af90fd698a233a518aa5d07e595d983b8c0526c8f7fb87876040516111d6929190612a51565b60405180910390a46111ec818787878787611a44565b505050505050565b60fd80546001600160a01b038381166001600160a01b0319831681179093556040519116919082907f8be0079c531659141344cd1fd0a4f28419497f9722a3daafe3b4186f6b6457e090600090a35050565b600054610100900460ff1661126d5760405162461bcd60e51b815260040161049490612a7f565b610d9f81611aff565b600054610100900460ff16610a3b5760405162461bcd60e51b815260040161049490612a7f565b600054610100900460ff166112c45760405162461bcd60e51b815260040161049490612a7f565b610be58282611b2f565b600054610100900460ff166112f55760405162461bcd60e51b815260040161049490612a7f565b610a3b611b70565b816001600160a01b0316836001600160a01b0316036113705760405162461bcd60e51b815260206004820152602960248201527f455243313135353a2073657474696e6720617070726f76616c20737461747573604482015268103337b91039b2b63360b91b6064820152608401610494565b6001600160a01b03838116600081815260666020908152604080832094871680845294825291829020805460ff191686151590811790915591519182527f17307eab39ab6107e8899845ad3d59bd9653f200f220920489ca2b5937696c31910160405180910390a3505050565b6001600160a01b0384166114035760405162461bcd60e51b8152600401610494906128f3565b81518351146114245760405162461bcd60e51b81526004016104949061297a565b3361143481600087878787611853565b60005b84518110156114d057838181518110611452576114526128c4565b602002602001015160656000878481518110611470576114706128c4565b602002602001015181526020019081526020016000206000886001600160a01b03166001600160a01b0316815260200190815260200160002060008282546114b8919061285e565b909155508190506114c8816128da565b915050611437565b50846001600160a01b031660006001600160a01b0316826001600160a01b03167f4a39dc06d4c0dbc64b70af90fd698a233a518aa5d07e595d983b8c0526c8f7fb8787604051611521929190612a51565b60405180910390a46108f981600087878787611a44565b6001600160a01b03841661155e5760405162461bcd60e51b8152600401610494906129c2565b33600061156a85611808565b9050600061157785611808565b9050611587838989858589611853565b60008681526065602090815260408083206001600160a01b038c168452909152902054858110156115ca5760405162461bcd60e51b815260040161049490612a07565b60008781526065602090815260408083206001600160a01b038d8116855292528083208985039055908a1682528120805488929061160990849061285e565b909155505060408051888152602081018890526001600160a01b03808b16928c821692918816917fc3d58168c5ae7397731d063d5bbf3d657854427343f4c083240f7aacaa2d0f62910160405180910390a4611669848a8a8a8a8a611861565b505050505050505050565b6001600160a01b0383166116d65760405162461bcd60e51b815260206004820152602360248201527f455243313135353a206275726e2066726f6d20746865207a65726f206164647260448201526265737360e81b6064820152608401610494565b3360006116e284611808565b905060006116ef84611808565b905061170f83876000858560405180602001604052806000815250611853565b60008581526065602090815260408083206001600160a01b038a1684529091529020548481101561178e5760405162461bcd60e51b8152602060048201526024808201527f455243313135353a206275726e20616d6f756e7420657863656564732062616c604482015263616e636560e01b6064820152608401610494565b60008681526065602090815260408083206001600160a01b038b81168086529184528285208a8703905582518b81529384018a90529092908816917fc3d58168c5ae7397731d063d5bbf3d657854427343f4c083240f7aacaa2d0f62910160405180910390a4604080516020810190915260009052610f6a565b60408051600180825281830190925260609160009190602080830190803683370190505090508281600081518110611842576118426128c4565b602090810291909101015292915050565b6111ec868686868686611ba0565b6001600160a01b0384163b156111ec5760405163f23a6e6160e01b81526001600160a01b0385169063f23a6e61906118a59089908990889088908890600401612aca565b6020604051808303816000875af19250505080156118e0575060408051601f3d908101601f191682019092526118dd91810190612b0f565b60015b61198c576118ec612b2c565b806308c379a0036119255750611900612b48565b8061190b5750611927565b8060405162461bcd60e51b815260040161049491906121c5565b505b60405162461bcd60e51b815260206004820152603460248201527f455243313135353a207472616e7366657220746f206e6f6e2d455243313135356044820152732932b1b2b4bb32b91034b6b83632b6b2b73a32b960611b6064820152608401610494565b6001600160e01b0319811663f23a6e6160e01b14610f6a5760405162461bcd60e51b815260040161049490612bd1565b604080517f71aaa345391e138efdca5e138c6f901503a8fb94fa21af7de84375dd4ab13b9860208281019190915283358284015283013560608201529082013560808201526000908190610fcc9060a00160405160208183030381529060405280519060200120611d19565b6000806000611a378585611d67565b91509150610a2181611dac565b6001600160a01b0384163b156111ec5760405163bc197c8160e01b81526001600160a01b0385169063bc197c8190611a889089908990889088908890600401612c19565b6020604051808303816000875af1925050508015611ac3575060408051601f3d908101601f19168201909252611ac091810190612b0f565b60015b611acf576118ec612b2c565b6001600160e01b0319811663bc197c8160e01b14610f6a5760405162461bcd60e51b815260040161049490612bd1565b600054610100900460ff16611b265760405162461bcd60e51b815260040161049490612a7f565b610d9f81611ef6565b600054610100900460ff16611b565760405162461bcd60e51b815260040161049490612a7f565b81516020928301208151919092012060c99190915560ca55565b600054610100900460ff16611b975760405162461bcd60e51b815260040161049490612a7f565b610a3b336111f4565b6001600160a01b038516611c275760005b8351811015611c2557828181518110611bcc57611bcc6128c4565b602002602001015160976000868481518110611bea57611bea6128c4565b602002602001015181526020019081526020016000206000828254611c0f919061285e565b90915550611c1e9050816128da565b9050611bb1565b505b6001600160a01b0384166111ec5760005b8351811015610f6a576000848281518110611c5557611c556128c4565b602002602001015190506000848381518110611c7357611c736128c4565b6020026020010151905060006097600084815260200190815260200160002054905081811015611cf65760405162461bcd60e51b815260206004820152602860248201527f455243313135353a206275726e20616d6f756e74206578636565647320746f74604482015267616c537570706c7960c01b6064820152608401610494565b60009283526097602052604090922091039055611d12816128da565b9050611c38565b60006104ea611d26611f09565b8360405161190160f01b6020820152602281018390526042810182905260009060620160405160208183030381529060405280519060200120905092915050565b6000808251604103611d9d5760208301516040840151606085015160001a611d9187828585611f89565b94509450505050611da5565b506000905060025b9250929050565b6000816004811115611dc057611dc0612c77565b03611dc85750565b6001816004811115611ddc57611ddc612c77565b03611e295760405162461bcd60e51b815260206004820152601860248201527f45434453413a20696e76616c6964207369676e617475726500000000000000006044820152606401610494565b6002816004811115611e3d57611e3d612c77565b03611e8a5760405162461bcd60e51b815260206004820152601f60248201527f45434453413a20696e76616c6964207369676e6174757265206c656e677468006044820152606401610494565b6003816004811115611e9e57611e9e612c77565b03610d9f5760405162461bcd60e51b815260206004820152602260248201527f45434453413a20696e76616c6964207369676e6174757265202773272076616c604482015261756560f01b6064820152608401610494565b8051610be590606790602084019061204d565b6000611f847f8b73c3c69bb8fe3d512ecc4cf759cc79239f7b179b0ffacaa9a75d522b39400f611f3860c95490565b60ca546040805160208101859052908101839052606081018290524660808201523060a082015260009060c0016040516020818303038152906040528051906020012090509392505050565b905090565b6000807f7fffffffffffffffffffffffffffffff5d576e7357a4501ddfe92f46681b20a0831115611fc05750600090506003612044565b6040805160008082526020820180845289905260ff881692820192909252606081018690526080810185905260019060a0016020604051602081039080840390855afa158015612014573d6000803e3d6000fd5b5050604051601f1901519150506001600160a01b03811661203d57600060019250925050612044565b9150600090505b94509492505050565b8280546120599061279d565b90600052602060002090601f01602090048101928261207b57600085556120c1565b82601f1061209457805160ff19168380011785556120c1565b828001600101855582156120c1579182015b828111156120c15782518255916020019190600101906120a6565b506120cd9291506120d1565b5090565b5b808211156120cd57600081556001016120d2565b80356001600160a01b03811681146120fd57600080fd5b919050565b6000806040838503121561211557600080fd5b61211e836120e6565b946020939093013593505050565b6001600160e01b031981168114610d9f57600080fd5b60006020828403121561215457600080fd5b8135610fcc8161212c565b60006020828403121561217157600080fd5b5035919050565b6000815180845260005b8181101561219e57602081850181015186830182015201612182565b818111156121b0576000602083870101525b50601f01601f19169290920160200192915050565b602081526000610fcc6020830184612178565b6000806000606084860312156121ed57600080fd5b6121f6846120e6565b95602085013595506040909401359392505050565b60008060006060848603121561222057600080fd5b612229846120e6565b92506020840135915060408401356001600160401b0381111561224b57600080fd5b84016080818703121561225d57600080fd5b809150509250925092565b634e487b7160e01b600052604160045260246000fd5b601f8201601f191681016001600160401b03811182821017156122a3576122a3612268565b6040525050565b60006001600160401b038211156122c3576122c3612268565b5060051b60200190565b600082601f8301126122de57600080fd5b813560206122eb826122aa565b6040516122f8828261227e565b83815260059390931b850182019282810191508684111561231857600080fd5b8286015b84811015612333578035835291830191830161231c565b509695505050505050565b60006001600160401b0383111561235757612357612268565b60405161236e601f8501601f19166020018261227e565b80915083815284848401111561238357600080fd5b83836020830137600060208583010152509392505050565b600082601f8301126123ac57600080fd5b610fcc8383356020850161233e565b600080600080600060a086880312156123d357600080fd5b6123dc866120e6565b94506123ea602087016120e6565b935060408601356001600160401b038082111561240657600080fd5b61241289838a016122cd565b9450606088013591508082111561242857600080fd5b61243489838a016122cd565b9350608088013591508082111561244a57600080fd5b506124578882890161239b565b9150509295509295909350565b6000806040838503121561247757600080fd5b82356001600160401b038082111561248e57600080fd5b818501915085601f8301126124a257600080fd5b813560206124af826122aa565b6040516124bc828261227e565b83815260059390931b85018201928281019150898411156124dc57600080fd5b948201945b83861015612501576124f2866120e6565b825294820194908201906124e1565b9650508601359250508082111561251757600080fd5b50612524858286016122cd565b9150509250929050565b600081518084526020808501945080840160005b8381101561255e57815187529582019590820190600101612542565b509495945050505050565b602081526000610fcc602083018461252e565b803580151581146120fd57600080fd5b6000806000606084860312156125a157600080fd5b83356001600160401b038111156125b757600080fd5b8401601f810186136125c857600080fd5b6125d78682356020840161233e565b9350506125e66020850161257c565b91506125f4604085016120e6565b90509250925092565b6000806040838503121561261057600080fd5b612619836120e6565b91506126276020840161257c565b90509250929050565b60008083601f84011261264257600080fd5b5081356001600160401b0381111561265957600080fd5b6020830191508360208260051b8501011115611da557600080fd5b60008060008060006060868803121561268c57600080fd5b612695866120e6565b945060208601356001600160401b03808211156126b157600080fd5b6126bd89838a01612630565b909650945060408801359150808211156126d657600080fd5b506126e388828901612630565b969995985093965092949392505050565b6000806040838503121561270757600080fd5b612710836120e6565b9150612627602084016120e6565b600080600080600060a0868803121561273657600080fd5b61273f866120e6565b945061274d602087016120e6565b9350604086013592506060860135915060808601356001600160401b0381111561277657600080fd5b6124578882890161239b565b60006020828403121561279457600080fd5b610fcc826120e6565b600181811c908216806127b157607f821691505b6020821081036127d157634e487b7160e01b600052602260045260246000fd5b50919050565b6000602082840312156127e957600080fd5b5051919050565b634e487b7160e01b600052601160045260246000fd5b600082821015612818576128186127f0565b500390565b6000816000190483118215151615612837576128376127f0565b500290565b60008261285957634e487b7160e01b600052601260045260246000fd5b500490565b60008219821115612871576128716127f0565b500190565b6020808252602e908201527f455243313135353a2063616c6c6572206973206e6f7420746f6b656e206f776e60408201526d195c881bdc88185c1c1c9bdd995960921b606082015260800190565b634e487b7160e01b600052603260045260246000fd5b6000600182016128ec576128ec6127f0565b5060010190565b60208082526021908201527f455243313135353a206d696e7420746f20746865207a65726f206164647265736040820152607360f81b606082015260800190565b6000808335601e1984360301811261294b57600080fd5b8301803591506001600160401b0382111561296557600080fd5b602001915036819003821315611da557600080fd5b60208082526028908201527f455243313135353a2069647320616e6420616d6f756e7473206c656e677468206040820152670dad2e6dac2e8c6d60c31b606082015260800190565b60208082526025908201527f455243313135353a207472616e7366657220746f20746865207a65726f206164604082015264647265737360d81b606082015260800190565b6020808252602a908201527f455243313135353a20696e73756666696369656e742062616c616e636520666f60408201526939103a3930b739b332b960b11b606082015260800190565b604081526000612a64604083018561252e565b8281036020840152612a76818561252e565b95945050505050565b6020808252602b908201527f496e697469616c697a61626c653a20636f6e7472616374206973206e6f74206960408201526a6e697469616c697a696e6760a81b606082015260800190565b6001600160a01b03868116825285166020820152604081018490526060810183905260a060808201819052600090612b0490830184612178565b979650505050505050565b600060208284031215612b2157600080fd5b8151610fcc8161212c565b600060033d1115612b455760046000803e5060005160e01c5b90565b600060443d1015612b565790565b6040516003193d81016004833e81513d6001600160401b038160248401118184111715612b8557505050505090565b8285019150815181811115612b9d5750505050505090565b843d8701016020828501011115612bb75750505050505090565b612bc66020828601018761227e565b509095945050505050565b60208082526028908201527f455243313135353a204552433131353552656365697665722072656a656374656040820152676420746f6b656e7360c01b606082015260800190565b6001600160a01b0386811682528516602082015260a060408201819052600090612c459083018661252e565b8281036060840152612c57818661252e565b90508281036080840152612c6b8185612178565b98975050505050505050565b634e487b7160e01b600052602160045260246000fdfea2646970667358221220cd654c03a2d058841eb1945e03f82f5d914c8738092df4e0757dad93c2466c3e64736f6c634300080d0033",
  "devdoc": {
    "kind": "dev",
    "methods": {
      "owner()": {
        "details": "Returns the address of the current owner."
      },
      "paused()": {
        "details": "Returns true if the contract is paused, and false otherwise."
      },
      "renounceOwnership()": {
        "details": "Leaves the contract without owner. It will not be possible to call `onlyOwner` functions anymore. Can only be called by the current owner. NOTE: Renouncing ownership will leave the contract without an owner, thereby removing any functionality that is only available to the owner."
      },
      "transferOwnership(address)": {
        "details": "Transfers ownership of the contract to a new account (`newOwner`). Can only be called by the current owner."
      }
    },
    "version": 1
  },
  "userdoc": {
    "kind": "user",
    "methods": {},
    "version": 1
  },
  "storageLayout": {
    "storage": [
      {
        "astId": 3841,
        "contract": "src/contracts/NFTubeManager.sol:NFTubeManager",
        "label": "_owner",
        "offset": 0,
        "slot": "0",
        "type": "t_address"
      },
      {
        "astId": 3964,
        "contract": "src/contracts/NFTubeManager.sol:NFTubeManager",
        "label": "_paused",
        "offset": 20,
        "slot": "0",
        "type": "t_bool"
      },
      {
        "astId": 4571,
        "contract": "src/contracts/NFTubeManager.sol:NFTubeManager",
        "label": "redeemFee",
        "offset": 0,
        "slot": "1",
        "type": "t_uint256"
      },
      {
        "astId": 4573,
        "contract": "src/contracts/NFTubeManager.sol:NFTubeManager",
        "label": "feeReceiver",
        "offset": 0,
        "slot": "2",
        "type": "t_address"
      },
      {
        "astId": 4575,
        "contract": "src/contracts/NFTubeManager.sol:NFTubeManager",
        "label": "logic",
        "offset": 0,
        "slot": "3",
        "type": "t_address"
      }
    ],
    "types": {
      "t_address": {
        "encoding": "inplace",
        "label": "address",
        "numberOfBytes": "20"
      },
      "t_bool": {
        "encoding": "inplace",
        "label": "bool",
        "numberOfBytes": "1"
      },
      "t_uint256": {
        "encoding": "inplace",
        "label": "uint256",
        "numberOfBytes": "32"
      }
    }
  }
}